{
    "_format": "hh-sol-artifact-1",
    "contractName": "GreedyContract",
    "sourceName": "contracts/greedy-bots/GreedyContract.sol",
    "abi": [
        {
            "inputs": [
                {
                    "internalType": "contract ILendingPoolAddressesProvider",
                    "name": "_addressProvider",
                    "type": "address"
                },
                {
                    "internalType": "address",
                    "name": "_devAddress",
                    "type": "address"
                }
            ],
            "stateMutability": "nonpayable",
            "type": "constructor"
        },
        {
            "anonymous": false,
            "inputs": [
                {
                    "indexed": false,
                    "internalType": "address",
                    "name": "user",
                    "type": "address"
                }
            ],
            "name": "Sequenced",
            "type": "event"
        },
        {
            "inputs": [],
            "name": "ADDRESSES_PROVIDER",
            "outputs": [
                {
                    "internalType": "contract ILendingPoolAddressesProvider",
                    "name": "",
                    "type": "address"
                }
            ],
            "stateMutability": "view",
            "type": "function"
        },
        {
            "inputs": [],
            "name": "LENDING_POOL",
            "outputs": [
                {
                    "internalType": "contract ILendingPool",
                    "name": "",
                    "type": "address"
                }
            ],
            "stateMutability": "view",
            "type": "function"
        },
        {
            "inputs": [
                {
                    "internalType": "address[]",
                    "name": "assets",
                    "type": "address[]"
                },
                {
                    "internalType": "uint256[]",
                    "name": "amounts",
                    "type": "uint256[]"
                },
                {
                    "internalType": "uint256[]",
                    "name": "premiums",
                    "type": "uint256[]"
                },
                {
                    "internalType": "address",
                    "name": "initiator",
                    "type": "address"
                },
                {
                    "internalType": "bytes",
                    "name": "params",
                    "type": "bytes"
                }
            ],
            "name": "executeOperation",
            "outputs": [
                {
                    "internalType": "bool",
                    "name": "",
                    "type": "bool"
                }
            ],
            "stateMutability": "nonpayable",
            "type": "function"
        },
        {
            "inputs": [
                {
                    "components": [
                        {
                            "internalType": "address[]",
                            "name": "assets",
                            "type": "address[]"
                        },
                        {
                            "internalType": "uint256[]",
                            "name": "amounts",
                            "type": "uint256[]"
                        },
                        {
                            "internalType": "uint256[]",
                            "name": "modes",
                            "type": "uint256[]"
                        }
                    ],
                    "internalType": "struct Sequencer.LoanSequence",
                    "name": "loanData",
                    "type": "tuple"
                },
                {
                    "internalType": "bytes",
                    "name": "tradeData",
                    "type": "bytes"
                },
                {
                    "internalType": "bool",
                    "name": "useLoan",
                    "type": "bool"
                }
            ],
            "name": "executeSequence",
            "outputs": [],
            "stateMutability": "nonpayable",
            "type": "function"
        },
        {
            "inputs": [],
            "name": "owner",
            "outputs": [
                {
                    "internalType": "address",
                    "name": "",
                    "type": "address"
                }
            ],
            "stateMutability": "view",
            "type": "function"
        },
        {
            "inputs": [
                {
                    "internalType": "address",
                    "name": "_asset",
                    "type": "address"
                }
            ],
            "name": "withdraw",
            "outputs": [],
            "stateMutability": "nonpayable",
            "type": "function"
        },
        {
            "stateMutability": "payable",
            "type": "receive"
        }
    ],
    "bytecode": "0x60c06040523480156200001157600080fd5b50604051620016533803806200165383398101604081905262000034916200018e565b81806001600160a01b03166080816001600160a01b031681525050806001600160a01b0316630261bf8b6040518163ffffffff1660e01b8152600401602060405180830381865afa1580156200008e573d6000803e3d6000fd5b505050506040513d601f19601f82011682018060405250810190620000b49190620001cd565b6001600160a01b0390811660a052600280548483166001600160a01b03199182161790915560008054928616929091168217905560408051630261bf8b60e01b81529051919250630261bf8b9160048083019260209291908290030181865afa15801562000126573d6000803e3d6000fd5b505050506040513d601f19601f820116820180604052508101906200014c9190620001cd565b600180546001600160a01b0319166001600160a01b039290921691909117905550620001f49050565b6001600160a01b03811681146200018b57600080fd5b50565b60008060408385031215620001a257600080fd5b8251620001af8162000175565b6020840151909250620001c28162000175565b809150509250929050565b600060208284031215620001e057600080fd5b8151620001ed8162000175565b9392505050565b60805160a05161143a62000219600039600061015a015260006077015261143a6000f3fe6080604052600436106100595760003560e01c80630542975c1461006557806351cff8d9146100b657806371c6f4cc146100d85780638da5cb5b146100f8578063920f5c8414610118578063b4dcfc771461014857600080fd5b3661006057005b600080fd5b34801561007157600080fd5b506100997f000000000000000000000000000000000000000000000000000000000000000081565b6040516001600160a01b0390911681526020015b60405180910390f35b3480156100c257600080fd5b506100d66100d1366004610ba3565b61017c565b005b3480156100e457600080fd5b506100d66100f3366004610d56565b6102ba565b34801561010457600080fd5b50600254610099906001600160a01b031681565b34801561012457600080fd5b50610138610133366004610ee8565b6103c6565b60405190151581526020016100ad565b34801561015457600080fd5b506100997f000000000000000000000000000000000000000000000000000000000000000081565b6002546001600160a01b031633146101c05760405162461bcd60e51b81526020600482015260026024820152611a1960f11b60448201526064015b60405180910390fd5b6001600160a01b038116610232576002546040516000916001600160a01b03169047908381818185875af1925050503d806000811461021b576040519150601f19603f3d011682016040523d82523d6000602084013e610220565b606091505b505090508061022e57600080fd5b5050565b6002546040516370a0823160e01b81523060048201526102b7916001600160a01b0390811691908416906370a0823190602401602060405180830381865afa158015610282573d6000803e3d6000fd5b505050506040513d601f19601f820116820180604052508101906102a69190610fed565b6001600160a01b03841691906105c3565b50565b6002546001600160a01b031633146102f95760405162461bcd60e51b81526020600482015260026024820152611a1960f11b60448201526064016101b7565b6001546001600160a01b03168382156103825780516020820151604080840151905163ab9c4b5d60e01b81526001600160a01b0386169363ab9c4b5d9361034b93309333908c9060009060040161109d565b600060405180830381600087803b15801561036557600080fd5b505af1158015610379573d6000803e3d6000fd5b505050506103bf565b61038b8461062b565b6040513381527f418ec945bc0a5b00e014495f00d2406bedfc7690a64c24b6d490d63387dfd1ce9060200160405180910390a15b5050505050565b6001546000906001600160a01b031633146104135760405162461bcd60e51b815260206004820152600d60248201526c1c1bdbdb081b9bdd0814185d5b609a1b60448201526064016101b7565b600061045484848080601f0160208091040260200160405190810160405280939291908181526020018383808284376000920191909152506106a792505050565b905060005b8151518110156104d6576104c58260000151828151811061047c5761047c611159565b60200260200101518360200151838151811061049a5761049a611159565b6020026020010151846040015184815181106104b8576104b8611159565b6020026020010151610706565b506104cf81611185565b9050610459565b5060005b8a81101561057557600154610565906001600160a01b031689898481811061050457610504611159565b905060200201358c8c8581811061051d5761051d611159565b9050602002013561052e91906111a0565b8e8e8581811061054057610540611159565b90506020020160208101906105559190610ba3565b6001600160a01b0316919061082f565b61056e81611185565b90506104da565b506040516001600160a01b03861681527f418ec945bc0a5b00e014495f00d2406bedfc7690a64c24b6d490d63387dfd1ce9060200160405180910390a15060019a9950505050505050505050565b6040516001600160a01b03831660248201526044810182905261062690849063a9059cbb60e01b906064015b60408051601f198184030181529190526020810180516001600160e01b03166001600160e01b031990931692909217909152610944565b505050565b6000610636826106a7565b905060005b81515181101561066f5761065e8260000151828151811061047c5761047c611159565b5061066881611185565b905061063b565b506040513381527f418ec945bc0a5b00e014495f00d2406bedfc7690a64c24b6d490d63387dfd1ce9060200160405180910390a15050565b6106cb60405180606001604052806060815260200160608152602001606081525090565b6000806000848060200190518101906106e491906112cf565b6040805160608101825293845260208401929092529082015295945050505050565b60606001600160a01b0384163014156107545760405162461bcd60e51b815260206004820152601060248201526f496e7465726e616c207265656e74727960801b60448201526064016101b7565b60006060856001600160a01b0316848660405161077191906113b8565b60006040518083038185875af1925050503d80600081146107ae576040519150601f19603f3d011682016040523d82523d6000602084013e6107b3565b606091505b509092509050811580156107c8575060008151115b156107d7573d6000803e3d6000fd5b816108245760405162461bcd60e51b815260206004820152601860248201527f564d3a206578656375746543616c6c207265766572746564000000000000000060448201526064016101b7565b9150505b9392505050565b8015806108a95750604051636eb1769f60e11b81523060048201526001600160a01b03838116602483015284169063dd62ed3e90604401602060405180830381865afa158015610883573d6000803e3d6000fd5b505050506040513d601f19601f820116820180604052508101906108a79190610fed565b155b6109145760405162461bcd60e51b815260206004820152603660248201527f5361666545524332303a20617070726f76652066726f6d206e6f6e2d7a65726f60448201527520746f206e6f6e2d7a65726f20616c6c6f77616e636560501b60648201526084016101b7565b6040516001600160a01b03831660248201526044810182905261062690849063095ea7b360e01b906064016105ef565b6000610999826040518060400160405280602081526020017f5361666545524332303a206c6f772d6c6576656c2063616c6c206661696c6564815250856001600160a01b0316610a169092919063ffffffff16565b80519091501561062657808060200190518101906109b791906113d4565b6106265760405162461bcd60e51b815260206004820152602a60248201527f5361666545524332303a204552433230206f7065726174696f6e20646964206e6044820152691bdd081cdd58d8d9595960b21b60648201526084016101b7565b6060610a258484600085610a2d565b949350505050565b606082471015610a8e5760405162461bcd60e51b815260206004820152602660248201527f416464726573733a20696e73756666696369656e742062616c616e636520666f6044820152651c8818d85b1b60d21b60648201526084016101b7565b843b610adc5760405162461bcd60e51b815260206004820152601d60248201527f416464726573733a2063616c6c20746f206e6f6e2d636f6e747261637400000060448201526064016101b7565b600080866001600160a01b03168587604051610af891906113b8565b60006040518083038185875af1925050503d8060008114610b35576040519150601f19603f3d011682016040523d82523d6000602084013e610b3a565b606091505b5091509150610b4a828286610b55565b979650505050505050565b60608315610b64575081610828565b825115610b745782518084602001fd5b8160405162461bcd60e51b81526004016101b791906113f1565b6001600160a01b03811681146102b757600080fd5b600060208284031215610bb557600080fd5b813561082881610b8e565b634e487b7160e01b600052604160045260246000fd5b6040516060810167ffffffffffffffff81118282101715610bf957610bf9610bc0565b60405290565b604051601f8201601f1916810167ffffffffffffffff81118282101715610c2857610c28610bc0565b604052919050565b600067ffffffffffffffff821115610c4a57610c4a610bc0565b5060051b60200190565b600082601f830112610c6557600080fd5b81356020610c7a610c7583610c30565b610bff565b82815260059290921b84018101918181019086841115610c9957600080fd5b8286015b84811015610cb45780358352918301918301610c9d565b509695505050505050565b600067ffffffffffffffff821115610cd957610cd9610bc0565b50601f01601f191660200190565b600082601f830112610cf857600080fd5b8135610d06610c7582610cbf565b818152846020838601011115610d1b57600080fd5b816020850160208301376000918101602001919091529392505050565b80151581146102b757600080fd5b8035610d5181610d38565b919050565b600080600060608486031215610d6b57600080fd5b833567ffffffffffffffff80821115610d8357600080fd5b9085019060608288031215610d9757600080fd5b610d9f610bd6565b823582811115610dae57600080fd5b8301601f81018913610dbf57600080fd5b80356020610dcf610c7583610c30565b82815260059290921b8301810191818101908c841115610dee57600080fd5b938201935b83851015610e15578435610e0681610b8e565b82529382019390820190610df3565b85525085810135925084831115610e2b57600080fd5b610e378b848801610c54565b818501526040860135925084831115610e4f57600080fd5b610e5b8b848801610c54565b60408501529297505050860135915080821115610e7757600080fd5b50610e8486828701610ce7565b925050610e9360408501610d46565b90509250925092565b60008083601f840112610eae57600080fd5b50813567ffffffffffffffff811115610ec657600080fd5b6020830191508360208260051b8501011115610ee157600080fd5b9250929050565b600080600080600080600080600060a08a8c031215610f0657600080fd5b893567ffffffffffffffff80821115610f1e57600080fd5b610f2a8d838e01610e9c565b909b50995060208c0135915080821115610f4357600080fd5b610f4f8d838e01610e9c565b909950975060408c0135915080821115610f6857600080fd5b610f748d838e01610e9c565b909750955060608c01359150610f8982610b8e565b90935060808b01359080821115610f9f57600080fd5b818c0191508c601f830112610fb357600080fd5b813581811115610fc257600080fd5b8d6020828501011115610fd457600080fd5b6020830194508093505050509295985092959850929598565b600060208284031215610fff57600080fd5b5051919050565b600081518084526020808501945080840160005b838110156110365781518752958201959082019060010161101a565b509495945050505050565b60005b8381101561105c578181015183820152602001611044565b8381111561106b576000848401525b50505050565b60008151808452611089816020860160208601611041565b601f01601f19169290920160200192915050565b6001600160a01b03888116825260e0602080840182905289519184018290526000928a820192909190610100860190855b818110156110ec5785518516835294830194918301916001016110ce565b50508581036040870152611100818c611006565b935050505082810360608401526111178188611006565b6001600160a01b0387166080850152905082810360a084015261113a8186611071565b91505061114d60c083018461ffff169052565b98975050505050505050565b634e487b7160e01b600052603260045260246000fd5b634e487b7160e01b600052601160045260246000fd5b60006000198214156111995761119961116f565b5060010190565b600082198211156111b3576111b361116f565b500190565b600082601f8301126111c957600080fd5b815160206111d9610c7583610c30565b82815260059290921b840181019181810190868411156111f857600080fd5b8286015b84811015610cb457805167ffffffffffffffff81111561121c5760008081fd5b8701603f8101891361122e5760008081fd5b848101516040611240610c7583610cbf565b8281528b828486010111156112555760008081fd5b61126483898301848701611041565b86525050509183019183016111fc565b600082601f83011261128557600080fd5b81516020611295610c7583610c30565b82815260059290921b840181019181810190868411156112b457600080fd5b8286015b84811015610cb457805183529183019183016112b8565b6000806000606084860312156112e457600080fd5b835167ffffffffffffffff808211156112fc57600080fd5b818601915086601f83011261131057600080fd5b81516020611320610c7583610c30565b82815260059290921b8401810191818101908a84111561133f57600080fd5b948201945b8386101561136657855161135781610b8e565b82529482019490820190611344565b9189015191975090935050508082111561137f57600080fd5b61138b878388016111b8565b935060408601519150808211156113a157600080fd5b506113ae86828701611274565b9150509250925092565b600082516113ca818460208701611041565b9190910192915050565b6000602082840312156113e657600080fd5b815161082881610d38565b602081526000610828602083018461107156fea2646970667358221220b406ca46fbc248e4f5076265109689a32d997b727ee66472c7e89ce7004cc61f64736f6c634300080a0033",
    "linkReferences": {},
    "deployedLinkReferences": {}
}